:101800002AC0CAC2040309041C03770077007700CA
:101810002E00660069007300630068006C002E00F3
:10182000640065000E035500530042006100730020
:10183000700012011001FF000008C016DC05000155
:1018400001020001090212000101008032090400B6
:1018500000000000000011241FBECFEFD4E0DEBF67
:10186000CDBF11E0A0E0B1E0E0ECFFE102C00590E7
:101870000D92A630B107D9F711E0A6E0B1E001C0A2
:101880001D92AB33B107E1F710D0BACFB9CFF894BE
:1018900081E085BF15BEE89854985C981092690065
:1018A0001AB81BB8E0E0F0E0099400D000D0CDB742
:1018B000DEB784B78E7F823041F0E0E0F0E08591C2
:1018C00094918F5F9F4F09F04DC288E10FB6F89455
:1018D00080936000109260000FBE14BE10921D0134
:1018E00080E68AB980E48BB981E085BF82E085BF5C
:1018F000789480916900826080936900E89AE89802
:1019000054985C9820E040E050E0CA010197F1F75C
:101910002F5F2632D1F7549A5C9AE89A82E380933B
:101920001E016CE0262E312C00E254E2652E58E1B7
:10193000752E48E0442E48E1542E34E0E32E38E181
:10194000F32E24E4C22E28E1D22E92E3A92E98E1B0
:10195000B92E86E0882E81E0982E20912101235017
:1019600027FD52C180911C01D101A81BB109AB5DBB
:10197000BE4F80911B018D3209F0F6C0283009F06E
:1019800041C143EC40930B018AE580930001109222
:101990000A013C91832F807611962C911197882310
:1019A00009F470C09092200180921F01253039F413
:1019B000109206018FEF80931E0191E0C1C021308B
:1019C00011F45D9A4AC0223029F45E9891E0909318
:1019D0001D0143C0233009F03EC010920601109251
:1019E0000701109208011092090112968C9112972A
:1019F000803361F41496EC911497F0E0E370F0708A
:101A0000EE5FFE4F80818093090199C08C3A09F006
:101A100096C013968C911397803809F090C010925D
:101A200019011092180180E090E00CC007B600FC8C
:101A3000FDCFF89423E0FC0120935700E8957894BB
:101A4000805C9F4F48E18030940780F390931901A8
:101A50008093180174C0243010F490E071C0129685
:101A60008D919C911397909319018093180116966C
:101A70008C9116978093160120931A0137FD66C04A
:101A80002FEF66C012969C91129710921401222398
:101A900031F41092150124E131E092E04BC0253081
:101AA00019F49093220143C0263089F513968C9146
:101AB0001397813029F4B0922001A0921F0106C033
:101AC000823031F4D0922001C0921F0192E11BC0FC
:101AD0008330C1F4992331F4F0922001E0921F0188
:101AE00094E011C0913031F45092200140921F01D6
:101AF0009CE109C0923031F47092200160921F0184
:101B00009EE001C090E080E480930A0119C0283073
:101B100019F424E231E009C0293019F4909324012A
:101B200006C02A3021F424E131E091E003C024E131
:101B300031E090E03093200120931F0101C094E038
:101B400017968C911797882339F00AC016962C9116
:101B500080E880930A0105C016962C91291708F099
:101B6000292F209301014EC080910A0187FF4AC0AE
:101B700090911601822F921708F4892F192F181BA4
:101B800010931601782F769571502091180130919D
:101B9000190160E0F8948D919D9141E00C01F901EB
:101BA00040935700E89511247894A9014E5F5F4F48
:101BB000842F90E08F739070892B21F0112391F482
:101BC000671781F4F89485E0F90180935700E89550
:101BD000789407B600FCFDCFF89491E190935700FC
:101BE000E89578946F5F761710F09A01D3CF5093F1
:101BF0001901409318018BB180278BB9112311F47F
:101C000010920101109221018091000184FF82C095
:101C1000809101018F3F09F47DC0182F893008F0B1
:101C200018E0811B8093010180910B0198E88927BE
:101C300080930B01112309F45BC080910A0187FF97
:101C400031C080911601811708F4182F811B8093F1
:101C50001601A0911801B0911901AD01ECE0F1E07D
:101C6000FA83E983212F30E0B9016E0F7F1F09C08D
:101C7000FA018491E981FA818193FA83E9834F5FC4
:101C80005F4F89819A818617970791F72A0F3B1F2B
:101C900030931901209318018BB180278BB919302B
:101CA00098F526C020911F013091200186FF0DC0BC
:101CB000ACE0B1E080E090E0F901E80FF91FE491B9
:101CC000ED9301961817C1F708C0D901912FECE0E8
:101CD000F1E08D9181939150E1F71150812F90E0C7
:101CE0001F5F0196820F931F9093200180931F0125
:101CF0008CE091E0612F4CD0612F6C5F6C3041F033
:101D00008FEF8093010104C08FEF809301016EE19A
:101D10006093000194E189B1847831F49150D9F74E
:101D20001092220110921701EB81FC813196FC8305
:101D3000EB83EF2B51F48BB180278BB980911E017F
:101D40008F3F19F0815080931E0180911D018823DF
:101D500029F480911E01882309F0FFCD80E090E0F6
:101D60000197F1F794DDA82FB92F80E090E041E0D2
:101D700050EA60956F5F58F42D9138EF8227979560
:101D8000879510F0842795273F5FC8F3F3CF089518
:101D9000EADF8D939D930895CF93CFB7CF93DF93D1
:101DA000C3954F9BE9F74F9B0BC04F9B09C04F9BBF
:101DB00007C04F9B05C04F9B03C04F9B01C089C00C
:101DC0006F93C0911C01DD27CB5DDE4F2F9365E53E
:101DD0004F9B03C02F916F91E6CF0F931F934F93AB
:101DE00020E040E15F9309B1047807FB27F93F93B6
:101DF00050E03BE039C0147840642F77012F5350F6
:101E00001EC0406819B114782F7753501FC040642A
:101E100009B12F770478D1F15350000023C04062FC
:101E200019B12F77147891F15350000025C0047830
:101E30001027515012F45D5F0000115027952C3F80
:101E400019B1C8F614780127015027952C3FC8F620
:101E50004227499309B1047810274F7311502795F1
:101E60002C3FA8F64695469519B1147879F00127CC
:101E7000015027952C3F98F66B5A60F3315009B109
:101E8000B0F600C011E01CBB002717C03B503195D5
:101E9000C31BD04011E01CBB0881033CF9F00B349C
:101EA000E9F0209117011981110F1213EDCF0936B6
:101EB00051F10D3211F0013E39F7009323013F91AA
:101EC0005F914F911F910F912F916F91CCB3C0FDF6
:101ED00067CFDF91CF91CFBFCF911895209123018C
:101EE000222369F310912101112339F534303AF19D
:101EF0003093210120931B0110911C013BE0311B09
:101F000030931C011CC0009121010130B4F40AE59A
:101F10003091000134FD14C000930001CBE0D1E00A
:101F200013C0052710E000C000000BB91AC0052738
:101F300010E0221F1DC010E021C04AE502C032EDB2
:101F4000432FC4E1D0E032E01AB114685F9A0BB1BC
:101F50001AB954E820E865E320FF05270BB9279557
:101F600017951C3FF0F66695B8F7B1F720FF0527E7
:101F70000BB9279517951C3FD0F62795179517FF96
:101F8000052700001C3F0BB9B0F629913A9519F7C7
:101F90000B7710912201110FC651D0400BB911F0EF
:101FA0001093170111E01CBB00681AB11B77402F7A
:101FB0004B7754E05A95F1F70BB91AB94BB97FCF6B
:061FC0005AFF1E930A0007
:0400000300001800E1
:00000001FF
