:101800002BC02AC0A7C2040309041C037700770079
:1018100077002E00660069007300630068006C00AA
:101820002E00640065000E03550053004200610065
:101830007300700012011001FF000008C016DC05E3
:1018400000010102000109021200010100803209B9
:10185000040000000000000011241FBECFEFD4E000
:10186000DEBFCDBF11E0A0E0B1E0E2EFFFE102C0DA
:1018700005900D92A630B107D9F711E0A6E0B1E0CE
:1018800001C01D92AB33B107E1F710D0B9CFB8CF8B
:10189000F89481E085BF15BEE99852985A98109245
:1018A00069001AB81BB8E0E0F0E0099494B79E7F95
:1018B000923009F035C214BE10921D0180E68AB93B
:1018C00080E48BB981E085BF95BF789480916900F1
:1018D0008C6080936900E99AE99852985A9820E0C0
:1018E00040E050E0CA010197F1F72F5F2632D1F7AF
:1018F000529A5A9AE99A82E380931E016CE0262E4E
:10190000312C00E256E2452E58E1552E4AE0E42EF5
:1019100048E1F42E36E0C32E38E1D32E26E4A22E81
:1019200028E1B22E94E3892E98E1992E86E0682E64
:1019300081E0782E90912101935097FD56C18091BE
:101940001C01D101A81BB109AB5DBE4F80911B01E9
:101950008D3209F0F9C0983009F045C123EC20938D
:101960000B016AE56093000110920A013C91832FFC
:10197000807611962C911197882309F470C070928B
:10198000200160921F01253039F4109206018FEF7B
:1019900080931E0191E0C4C0213011F45D9A4AC0C9
:1019A000223029F45E9881E080931D0143C02330EA
:1019B00009F03EC010920601109207011092080132
:1019C0001092090112968C911297803361F414964B
:1019D000EC911497F0E0E370F070EE5FFE4F8081C1
:1019E000809309019CC08C3A09F099C013968C91A0
:1019F0001397803809F093C01092190110921801C2
:101A000080E090E00CC007B600FCFDCFF89423E026
:101A1000FC0120935700E8957894805C9F4F68E123
:101A20008030960780F3909319018093180177C056
:101A3000243010F490E074C012968D919C9113970D
:101A4000909319018093180116968C9116978093A4
:101A5000160120931A0137FD69C02FEF69C0129655
:101A60008C91129710921401222331F410921501D7
:101A700024E131E092E04EC0253019F48093220138
:101A800046C02630A1F513968C911397813029F426
:101A90009092200180921F0106C0823031F4B092F2
:101AA0002001A0921F0192E11EC08330D9F412964A
:101AB0008C911297882331F4D0922001C0921F019B
:101AC00094E011C0813031F4F0922001E0921F01C6
:101AD0009CE109C0823031F45092200140921F01F4
:101AE0009EE001C090E080E480930A0119C0283094
:101AF00019F424E231E009C0293019F4809324015B
:101B000006C02A3021F424E131E091E003C024E151
:101B100031E090E03093200120931F0101C094E058
:101B200017968C911797882339F00AC016962C9136
:101B300080E880930A0105C016962C91291708F0B9
:101B4000292F209301014FC080910A0187FF4BC0CC
:101B500080911601891708F4982F891B809316012C
:101B6000592F5695515040E0F8942091180130912A
:101B700019018D919D9161E00C01F901609357006D
:101B8000E89511247894B9016E5F7F4F862F90E01D
:101B90008F739070892B31F080911601882391F416
:101BA000451781F4F89485E0F90180935700E89592
:101BB000789407B600FCFDCFF89421E120935700FC
:101BC000E895789470931901609318014F5F54174A
:101BD00008F0CACF8BB180278BB98091160188237A
:101BE00011F410920101109221018091000184FFF3
:101BF00074C0809101018F3F09F46FC0182F8930A4
:101C000008F018E0811B8093010180910B0198E896
:101C1000892780930B01112309F44DC080910A019B
:101C200087FF23C080911601811708F4182F811BAC
:101C300080931601ACE0B1E0212F30E02A0F3B1F6A
:101C40000BC0E0911801F091190184918D933196A8
:101C5000F0931901E0931801A217B30791F78BB124
:101C600080278BB9193098F526C020911F0130913B
:101C7000200186FF0DC0ACE0B1E080E090E0F9010A
:101C8000E80FF91FE491ED9301961817C1F708C00A
:101C9000D901912FECE0F1E08D9181939150E1F722
:101CA0001150812F90E01F5F0196820F931F909338
:101CB000200180931F01612F8CE091E047D0612FBC
:101CC0006C5F6C3041F08FEF8093010104C08FEFA7
:101CD000809301016EE1609300019AE089B18A70FE
:101CE00031F49150D9F710922201109217012196E8
:101CF00051F48BB180278BB980911E018F3F19F071
:101D0000815080931E0180911D01882329F48091C8
:101D10001E01882309F00ECE80E090E00197F1F7D4
:101D2000B7DDA82FB92F80E090E041E050EA609540
:101D30006F5F58F42D9138EF82279795879510F0B3
:101D4000842795273F5FC8F3F3CF0895EADF8D938B
:101D50009D930895CF93CFB7CF93499BFECF499BD7
:101D600009C0499B07C0499B05C0499B03C0499BCB
:101D700001C0A1C0DF93C0911C01DD27CB5DDE4F08
:101D8000499B02C0DF91EBCF2F930F931F9309B1B3
:101D90002FEF01FB20F94F933F9319B14FEF01272C
:101DA00001FB21F93BE031C04E7F012F19B12160C9
:101DB00028C0102F4D7F2260000009B129C04B7F41
:101DC0002460012F000019B12BC019B1477F286092
:101DD0002AC04F7E09B120612CC04F7D19B120620D
:101DE0002FC04F7B09B1206432C0422709B149930B
:101DF0004FEF0000102711FB20F919B11A70C9F13B
:101E0000297F91F2012701FB21F909B1237F89F292
:101E1000315058F1102711FB22F919B1277E79F2C0
:101E2000012701FB23F92F7C81F209B1102711FB57
:101E300024F92F7971F200C019B1012701FB25F9AE
:101E40002F7359F200C009B1102711FB26F9223077
:101E500040F200C019B1012701FB27F9243028F610
:101E60004F77206819B10000F9CF12E01CBB0027A2
:101E700017C03B503195C31BD04012E01CBB0881FA
:101E8000033CE9F00B34D9F0209117011981110FAF
:101E90001213EDCF093641F10D3211F0013E39F741
:101EA000009323013F914F911F910F912F91DF914B
:101EB000CCB3C1FD52CFCF91CFBFCF911895009138
:101EC0002301002379F310912101112349F53430C6
:101ED0004AF13093210100931B0110911C013BE05A
:101EE000311B30931C011EC0009121010130C4F44C
:101EF0000AE53091000134FD17C000930001CBE0EA
:101F0000D1E016C0052710E00BB91FC0052722C07D
:101F1000052727C005272CC0052710E00BB933C0C3
:101F20004AE503C042ED01C0432FC4E1D0E032E0F6
:101F30001AB11A60599A0BB11AB95F935AE020E8A6
:101F400020FF05270BB9279517951C3FD8F620FFD2
:101F5000052727950BB917951C3FC0F620FF0527CD
:101F6000279517950BB91C3F98F620FF0527279555
:101F700017951C3F0BB970F600C0499120FF05274B
:101F80000BB9279517951C3F38F620FF0527279595
:101F90000BB917951C3F38F520FF05272795179596
:101FA0000BB91C3F10F520FF0527279517951C3FFF
:101FB0000BB9E8F4242F3A9519F6057F5F910BB918
:101FC00010912201110FC651D04011F0109317014A
:101FD00012E01CBB02601AB1157F402F457F0BB980
:101FE0001AB94BB95FCF0527D3CF0527D8CF05271F
:021FF000DDCF43
:061FF2005AFF1E930A00D5
:0400000300001800E1
:00000001FF
