:100000004FC026C568C067C066C065C064C063C015
:1000100062C061C060C05FC05EC05DC05CC05BC0EC
:10002000E3C459C058C057C056C055C054C053C08F
:1000300052C051C004030904140353007000690046
:10004000640061002E006E00650074001603460017
:100050006E006F00720064006C006900630068004D
:1000600074001A0375006E0063006F006E00660076
:1000700069006700750072006500640012011001DC
:10008000FF000008C016DC0500010102030109029F
:1000900012000101004000090400000000000000FF
:1000A00011241FBECFEFD4E0DEBFCDBF11E0A0E032
:1000B000B1E0E4EAFCE002C005900D92A430B10783
:1000C000D9F711E0A4E0B1E001C01D92A137B1075A
:1000D000E1F7DDD1E5C594CF90E0EDE4F1E09C01DE
:1000E00043E0220F331F4A95E1F7280F391FDF0144
:1000F000A20FB31F11966C9311976C933896E20F71
:10010000F31F80818160808316961C921697139648
:100110001C921E92129715961C921E921497179677
:100120001C920895CF93DF93C82FD0E0FE01A3E087
:10013000EE0FFF1FAA95E1F7EC0FFD1FDF01A35B98
:10014000BE4F11966C93119711969C9111978C91BB
:10015000981731F4EB5AFE4F8081816080836FC025
:1001600041155105B9F411966C9311976C93EB5AA4
:10017000FE4F80818160808316961C92169713969D
:100180001C921E92129715961C921E921497179607
:100190001C9255C08C9111969C91682F70E0691B40
:1001A000710977FF03C0709561957F4FCE01E3E041
:1001B000880F991FEA95E1F78C0F9D1FFC01EB5A00
:1001C000FE4F20812E7F2083FC01E35BFE4F668380
:1001D0004617570788F0CA014FD573836283918110
:1001E0008081891710F481E005C091818081981782
:1001F000C0F48FEF878315C081E090E09383828302
:1002000091818081891720F4CB01BA0135D508C0CE
:1002100091818081981728F4CB01BA012DD5619581
:100220006783FE0153E0EE0FFF1F5A95E1F7EC0FD5
:10023000FD1FE35BFE4F8281938195838483DF9171
:10024000CF910895FC0181818823B9F482E191E086
:1002500090933201809331011092120182E08093D9
:100260001301109214018CE0809315011092160175
:1002700083E08093170186E00895813019F480931C
:100280001F01DBC0823001F58AE091E090933201DA
:1002900080933101828180930A01848180930B01D4
:1002A000828180930C01848180930D0182818093EF
:1002B0000E01848180930F018281809310018481DB
:1002C0008093110188E00895833081F484818093C4
:1002D0002201828180931C0189E091E09093320198
:1002E0008093310181E08093090108958430E1F425
:1002F00085E091E090933201809331018481809375
:100300002201828180931C0188B58093080187B502
:1003100080930701809188008093060180918A0074
:100320008093050184E00895853069F48481809389
:100330002001858180931E01828180932101838128
:1003400080931D017AC0863051F4938180E0228130
:10035000820F911D90931B0180931A016EC087300C
:1003600009F069C0848180932201828180931C01FD
:100370008091200180938A0090911E0190938800C3
:100380002091210127BD30911D0138BD80934E0180
:1003900080934D01809155018160809355011092A9
:1003A00053011092500110924F011092520110927D
:1003B00051011092540190935701909356018091EE
:1003C0005E01816080935E0110925C011092590180
:1003D0001092580110925B0110925A0110925D0127
:1003E0002093600120935F01809167018160809379
:1003F00067011092650110926201109261011092E2
:100400006401109263011092660130936901309388
:1004100068018091700181608093700110926E017B
:1004200010926B0110926A0110926D0110926C0192
:1004300010926F0102C0883011F080E0089584812D
:1004400080932201828180931C0140911A01509176
:100450001B0180E06091200165DE40911A015091FE
:100460001B0181E060911E015DDE40911A015091F7
:100470001B0182E06091210155DE40911A015091EB
:100480001B0183E060911D014DDE80E00895109214
:100490001F012EE088E190E00FB6F894A8958093B4
:1004A00060000FBE2093600086E084B980E68AB9C0
:1004B00081E085B98BB92A9A20E030E040E45CE91C
:1004C000A895CA010197F1F72F5F3F4F2B303105F7
:1004D000B9F72A9820E030E040E45CE9A895CA0129
:1004E0000197F1F72F5F3F4F22313105B9F7299A74
:1004F00020E030E040E45CE9A895CA010197F1F7FB
:100500002F5F3F4F2B303105B9F7299820E030E0BD
:1005100040E45CE9A895CA010197F1F72F5F3F4FCE
:1005200022313105B9F75E9A20E030E040E45CE921
:10053000A895CA010197F1F72F5F3F4F2B30310586
:10054000B9F75E9820E030E040E45CE9A895CA0184
:100550000197F1F72F5F3F4F22313105B9F75D9ACF
:1005600020E030E040E45CE9A895CA010197F1F78A
:100570002F5F3F4F2B303105B9F75D983AD12BD023
:1005800054985C9820E040EA5FE003C0CA010197FC
:10059000F1F72150D9F7549A5C9A7894A89522D013
:1005A00080911F01882361F028E088E190E00FB678
:1005B000F894A895809360000FBE20936000FFCF51
:1005C0008091040180FFEACF809104018E7F8093A7
:1005D000040177D1E3CFE9E6F0E080818260808397
:1005E000E89A08951F93CF93DF939091330193502E
:1005F00097FD98C02091300180912F018D3209F034
:100600008FC0983009F08CC0CCE0D0E0C21BD1097B
:10061000C95CDE4F83EC809323018AE5809302015D
:10062000109218019881892F807621F0CE010ADE80
:10063000282F6DC02A8110922C018981882349F4CA
:100640009F7119F481E080932C0110922D0122E01A
:1006500058C0853019F42093340152C0863009F017
:1006600040C08B81813019F48CE790E004C0823067
:1006700041F48EE890E0909332018093310122E1C1
:100680002CC0833049F58A81882341F484E390E0CB
:10069000909332018093310124E01FC0813041F4F6
:1006A00088E390E0909332018093310124E115C0FA
:1006B000823041F48CE490E09093320180933101D8
:1006C00026E10BC0833041F482E690E09093320142
:1006D000809331012AE101C020E080E48093180179
:1006E00016C0883021F421E086E391E00CC0893007
:1006F00019F42093360104C08A3011F421E001C0BE
:1007000020E08CE291E090933201809331018F815F
:10071000882321F48E81821708F4282F2093030167
:10072000109233018091020184FF49C0809103013E
:100730008F3F09F444C0182F893008F018E0811B5E
:10074000809303018091230198E8892780932301F6
:10075000112341F120913101309132018091180132
:1007600086FF0DC0A4E2B1E080E090E0F901E80F5F
:10077000F91FE491ED9301961817C1F708C0912F66
:10078000D901E4E2F1E08D9181939150E1F71150AC
:10079000812F90E01F5F0196820F931F909332018B
:1007A0008093310184E291E0612F4ED1612F6C5F23
:1007B0006C3019F08FEF809303016093020194E194
:1007C00089B1847831F49150D9F7109234011092A4
:1007D0002E01DF91CF911F91089591EA94BD83E09E
:1007E00085BD909380008093810081E080936E00AE
:1007F000089591EA94BD83E085BD90938000809335
:10080000810081E080936E0010928A00109288002F
:1008100017BC18BC20E030E0F90183E0EE0FFF1FA9
:100820008A95E1F7E20FF31FDF01A35BBE4F1C9235
:1008300011961C921197EB5AFE4F80818160808344
:1008400016961C92169713961C921E921297159646
:100850001C921E92149717961C922F5F3F4F2430C4
:100860003105D1F60895882319F460938A0008951C
:10087000813019F4609388000895823011F467BDC7
:100880000895833009F468BD0895882331F4809178
:100890008A00860F80938A000895813031F4809118
:1008A0008800860F809388000895823021F487B5F0
:1008B000860F87BD0895833019F488B5860F88BDEB
:1008C0000895CF92DF92EF92FF920F931F93CF93F1
:1008D000DF93EE24FF246FEFC62ED12C4E2D97010F
:1008E00053E0220F331F5A95E1F72E0D3F1D89016A
:1008F0000B5A1E4FF801808180FD65C0E901C35B82
:10090000DE4F8C819D8101979D838C838C819D819D
:10091000892B09F058C08A819B819D838C838E81AD
:1009200081508E838E81882309F444C08F811816EC
:1009300064F48F812881992787FD9095B601681B03
:10094000790B30E062177307ACF1870123E0000FE9
:10095000111F2A95E1F70E0D1F1DE801C35BDE4F45
:100960008F8187FF15C08F812881992787FD9095FA
:10097000909581959F4F30E0281739074CF4698195
:10098000842F71DF89818883F801EB5AFE4F18C0EC
:10099000F70193E0EE0FFF1F9A95E1F7EE0DFF1DB3
:1009A000E35BFE4F90818781890F80836781842F6D
:1009B0006CDF09C069818E2D56DF89818883F8013B
:1009C0008081816080830894E11CF11CF4E0EF16C3
:1009D000F10409F083CFDF91CF911F910F91FF9028
:1009E000EF90DF90CF9008951F920F920FB60F9265
:1009F00011248F93809119018F5F80931901815089
:100A0000833039F480910401816080930401109255
:100A100019018F910F900FBE0F901F901895A82F5E
:100A2000B92F80E090E041E050EA60956F5F58F4A4
:100A30002D9138EF82279795879510F08427952779
:100A40003F5FC8F3F3CF0895EADF8D939D93089538
:100A5000CF93CFB7CF93DF93C3954F9BE9F74F9BCE
:100A60000BC04F9B09C04F9B07C04F9B05C04F9BBE
:100A700003C04F9B01C089C06F93C0913001DD2737
:100A8000C95CDE4F2F9365E54F9B03C02F916F919B
:100A9000E6CF0F931F934F9320E040E15F9309B19E
:100AA000047807FB27F93F9350E03BE039C0147806
:100AB00040642F77012F53501EC0406819B114783D
:100AC0002F7753501FC0406409B12F770478D1F1BC
:100AD0005350000023C0406219B12F77147891F170
:100AE0005350000025C004781027515012F45D5F68
:100AF0000000115027952C3F19B1C8F61478012732
:100B0000015027952C3FC8F64227499309B1047834
:100B100010274F73115027952C3FA8F64695469500
:100B200019B1147879F00127015027952C3F98F6D8
:100B30006B5A60F3315009B1B0F600C011E01CBB34
:100B4000002717C03B503195C31BD04011E01CBBA0
:100B50000881033CF9F00B34E9F020912E01198152
:100B6000110F1213EDCF093651F10D3211F0013E84
:100B700039F7009335013F915F914F911F910F918C
:100B80002F916F91CCB3C0FD67CFDF91CF91CFBFD5
:100B9000CF91189520913501222369F310913301EB
:100BA000112339F534303AF13093330120932F017A
:100BB000109130013BE0311B309330011CC000919B
:100BC00033010130B4F40AE53091020134FD14C060
:100BD00000930201C3E2D1E013C0052710E000C07A
:100BE00000000BB91AC0052710E0221F1DC010E03D
:100BF00021C04AE502C032ED432FC4E1D0E032E02B
:100C00001AB114685F9A0BB11AB954E820E865E389
:100C100020FF05270BB9279517951C3FF0F6669521
:100C2000B8F7B1F720FF05270BB9279517951C3F9B
:100C3000D0F62795179517FF052700001C3F0BB925
:100C4000B0F629913A9519F70B7710913401110FED
:100C5000C651D0400BB911F010932E0111E01CBB0E
:100C600000681AB11B77402F4B7754E05A95F1F783
:100C70000BB91AB94BB97FCFAA1BBB1B51E107C0F7
:100C8000AA1FBB1FA617B70710F0A61BB70B881F1C
:100C9000991F5A95A9F780959095BC01CD010895AB
:040CA000F894FFCFF6
:040CA400000C5AFFE7
:00000001FF
